{
  "_format": "hh-sol-artifact-1",
  "contractName": "FarmingPool",
  "sourceName": "contracts/FarmingPool.sol",
  "abi": [
    {
      "inputs": [
        {
          "internalType": "address",
          "name": "_guiToken",
          "type": "address"
        }
      ],
      "stateMutability": "nonpayable",
      "type": "constructor"
    },
    {
      "inputs": [],
      "name": "EnforcedPause",
      "type": "error"
    },
    {
      "inputs": [],
      "name": "ExpectedPause",
      "type": "error"
    },
    {
      "inputs": [
        {
          "internalType": "address",
          "name": "owner",
          "type": "address"
        }
      ],
      "name": "OwnableInvalidOwner",
      "type": "error"
    },
    {
      "inputs": [
        {
          "internalType": "address",
          "name": "account",
          "type": "address"
        }
      ],
      "name": "OwnableUnauthorizedAccount",
      "type": "error"
    },
    {
      "inputs": [],
      "name": "ReentrancyGuardReentrantCall",
      "type": "error"
    },
    {
      "inputs": [
        {
          "internalType": "address",
          "name": "token",
          "type": "address"
        }
      ],
      "name": "SafeERC20FailedOperation",
      "type": "error"
    },
    {
      "anonymous": false,
      "inputs": [
        {
          "indexed": true,
          "internalType": "address",
          "name": "user",
          "type": "address"
        },
        {
          "indexed": false,
          "internalType": "uint256",
          "name": "amount",
          "type": "uint256"
        }
      ],
      "name": "EmergencyWithdrawal",
      "type": "event"
    },
    {
      "anonymous": false,
      "inputs": [
        {
          "indexed": true,
          "internalType": "uint256",
          "name": "poolId",
          "type": "uint256"
        },
        {
          "indexed": false,
          "internalType": "uint256",
          "name": "totalYield",
          "type": "uint256"
        }
      ],
      "name": "HarvestCompleted",
      "type": "event"
    },
    {
      "anonymous": false,
      "inputs": [
        {
          "indexed": true,
          "internalType": "address",
          "name": "previousOwner",
          "type": "address"
        },
        {
          "indexed": true,
          "internalType": "address",
          "name": "newOwner",
          "type": "address"
        }
      ],
      "name": "OwnershipTransferred",
      "type": "event"
    },
    {
      "anonymous": false,
      "inputs": [
        {
          "indexed": false,
          "internalType": "address",
          "name": "account",
          "type": "address"
        }
      ],
      "name": "Paused",
      "type": "event"
    },
    {
      "anonymous": false,
      "inputs": [
        {
          "indexed": true,
          "internalType": "uint256",
          "name": "poolId",
          "type": "uint256"
        },
        {
          "indexed": false,
          "internalType": "string",
          "name": "fieldId",
          "type": "string"
        },
        {
          "indexed": false,
          "internalType": "string",
          "name": "cropName",
          "type": "string"
        }
      ],
      "name": "PoolCreated",
      "type": "event"
    },
    {
      "anonymous": false,
      "inputs": [
        {
          "indexed": true,
          "internalType": "uint256",
          "name": "poolId",
          "type": "uint256"
        },
        {
          "indexed": false,
          "internalType": "bool",
          "name": "isActive",
          "type": "bool"
        }
      ],
      "name": "PoolStatusChanged",
      "type": "event"
    },
    {
      "anonymous": false,
      "inputs": [
        {
          "indexed": true,
          "internalType": "uint256",
          "name": "poolId",
          "type": "uint256"
        },
        {
          "indexed": true,
          "internalType": "address",
          "name": "user",
          "type": "address"
        },
        {
          "indexed": false,
          "internalType": "uint256",
          "name": "amount",
          "type": "uint256"
        }
      ],
      "name": "RewardsPaid",
      "type": "event"
    },
    {
      "anonymous": false,
      "inputs": [
        {
          "indexed": true,
          "internalType": "uint256",
          "name": "poolId",
          "type": "uint256"
        },
        {
          "indexed": true,
          "internalType": "address",
          "name": "user",
          "type": "address"
        },
        {
          "indexed": false,
          "internalType": "uint256",
          "name": "amount",
          "type": "uint256"
        }
      ],
      "name": "Staked",
      "type": "event"
    },
    {
      "anonymous": false,
      "inputs": [
        {
          "indexed": false,
          "internalType": "address",
          "name": "account",
          "type": "address"
        }
      ],
      "name": "Unpaused",
      "type": "event"
    },
    {
      "anonymous": false,
      "inputs": [
        {
          "indexed": true,
          "internalType": "uint256",
          "name": "poolId",
          "type": "uint256"
        },
        {
          "indexed": true,
          "internalType": "address",
          "name": "user",
          "type": "address"
        },
        {
          "indexed": false,
          "internalType": "uint256",
          "name": "amount",
          "type": "uint256"
        }
      ],
      "name": "Unstaked",
      "type": "event"
    },
    {
      "inputs": [],
      "name": "BASIS_POINTS",
      "outputs": [
        {
          "internalType": "uint256",
          "name": "",
          "type": "uint256"
        }
      ],
      "stateMutability": "view",
      "type": "function"
    },
    {
      "inputs": [],
      "name": "SECONDS_PER_YEAR",
      "outputs": [
        {
          "internalType": "uint256",
          "name": "",
          "type": "uint256"
        }
      ],
      "stateMutability": "view",
      "type": "function"
    },
    {
      "inputs": [
        {
          "internalType": "uint256",
          "name": "poolId",
          "type": "uint256"
        },
        {
          "internalType": "address",
          "name": "user",
          "type": "address"
        }
      ],
      "name": "calculateRewards",
      "outputs": [
        {
          "internalType": "uint256",
          "name": "",
          "type": "uint256"
        }
      ],
      "stateMutability": "view",
      "type": "function"
    },
    {
      "inputs": [
        {
          "internalType": "uint256",
          "name": "poolId",
          "type": "uint256"
        }
      ],
      "name": "claimRewards",
      "outputs": [],
      "stateMutability": "nonpayable",
      "type": "function"
    },
    {
      "inputs": [
        {
          "internalType": "uint256",
          "name": "poolId",
          "type": "uint256"
        },
        {
          "internalType": "uint256",
          "name": "actualYield",
          "type": "uint256"
        }
      ],
      "name": "completeHarvest",
      "outputs": [],
      "stateMutability": "nonpayable",
      "type": "function"
    },
    {
      "inputs": [
        {
          "internalType": "string",
          "name": "_fieldId",
          "type": "string"
        },
        {
          "internalType": "string",
          "name": "_cropName",
          "type": "string"
        },
        {
          "internalType": "uint256",
          "name": "_minStake",
          "type": "uint256"
        },
        {
          "internalType": "uint256",
          "name": "_maxStake",
          "type": "uint256"
        },
        {
          "internalType": "uint256",
          "name": "_rewardRate",
          "type": "uint256"
        },
        {
          "internalType": "uint256",
          "name": "_lockDuration",
          "type": "uint256"
        },
        {
          "internalType": "uint256",
          "name": "_harvestTime",
          "type": "uint256"
        },
        {
          "internalType": "enum FarmingPool.RiskLevel",
          "name": "_riskLevel",
          "type": "uint8"
        }
      ],
      "name": "createPool",
      "outputs": [],
      "stateMutability": "nonpayable",
      "type": "function"
    },
    {
      "inputs": [
        {
          "internalType": "uint256",
          "name": "poolId",
          "type": "uint256"
        }
      ],
      "name": "emergencyUnstake",
      "outputs": [],
      "stateMutability": "nonpayable",
      "type": "function"
    },
    {
      "inputs": [
        {
          "internalType": "uint256",
          "name": "poolId",
          "type": "uint256"
        }
      ],
      "name": "getPoolInfo",
      "outputs": [
        {
          "internalType": "string",
          "name": "fieldId",
          "type": "string"
        },
        {
          "internalType": "string",
          "name": "cropName",
          "type": "string"
        },
        {
          "internalType": "uint256",
          "name": "minStake",
          "type": "uint256"
        },
        {
          "internalType": "uint256",
          "name": "maxStake",
          "type": "uint256"
        },
        {
          "internalType": "uint256",
          "name": "totalStaked",
          "type": "uint256"
        },
        {
          "internalType": "uint256",
          "name": "rewardRate",
          "type": "uint256"
        },
        {
          "internalType": "uint256",
          "name": "lockDuration",
          "type": "uint256"
        },
        {
          "internalType": "uint256",
          "name": "harvestTime",
          "type": "uint256"
        },
        {
          "internalType": "bool",
          "name": "isActive",
          "type": "bool"
        },
        {
          "internalType": "enum FarmingPool.RiskLevel",
          "name": "riskLevel",
          "type": "uint8"
        },
        {
          "internalType": "uint256",
          "name": "investorsCount",
          "type": "uint256"
        }
      ],
      "stateMutability": "view",
      "type": "function"
    },
    {
      "inputs": [
        {
          "internalType": "uint256",
          "name": "poolId",
          "type": "uint256"
        }
      ],
      "name": "getPoolInvestors",
      "outputs": [
        {
          "internalType": "address[]",
          "name": "",
          "type": "address[]"
        }
      ],
      "stateMutability": "view",
      "type": "function"
    },
    {
      "inputs": [],
      "name": "getTotalPools",
      "outputs": [
        {
          "internalType": "uint256",
          "name": "",
          "type": "uint256"
        }
      ],
      "stateMutability": "view",
      "type": "function"
    },
    {
      "inputs": [
        {
          "internalType": "address",
          "name": "user",
          "type": "address"
        }
      ],
      "name": "getUserPools",
      "outputs": [
        {
          "internalType": "uint256[]",
          "name": "",
          "type": "uint256[]"
        }
      ],
      "stateMutability": "view",
      "type": "function"
    },
    {
      "inputs": [
        {
          "internalType": "uint256",
          "name": "poolId",
          "type": "uint256"
        },
        {
          "internalType": "address",
          "name": "user",
          "type": "address"
        }
      ],
      "name": "getUserStake",
      "outputs": [
        {
          "internalType": "uint256",
          "name": "amount",
          "type": "uint256"
        },
        {
          "internalType": "uint256",
          "name": "timestamp",
          "type": "uint256"
        },
        {
          "internalType": "uint256",
          "name": "unlockTime",
          "type": "uint256"
        },
        {
          "internalType": "uint256",
          "name": "rewardsPaid",
          "type": "uint256"
        },
        {
          "internalType": "bool",
          "name": "isActive",
          "type": "bool"
        },
        {
          "internalType": "uint256",
          "name": "pendingRewards",
          "type": "uint256"
        }
      ],
      "stateMutability": "view",
      "type": "function"
    },
    {
      "inputs": [],
      "name": "guiToken",
      "outputs": [
        {
          "internalType": "contract IERC20",
          "name": "",
          "type": "address"
        }
      ],
      "stateMutability": "view",
      "type": "function"
    },
    {
      "inputs": [],
      "name": "owner",
      "outputs": [
        {
          "internalType": "address",
          "name": "",
          "type": "address"
        }
      ],
      "stateMutability": "view",
      "type": "function"
    },
    {
      "inputs": [],
      "name": "pause",
      "outputs": [],
      "stateMutability": "nonpayable",
      "type": "function"
    },
    {
      "inputs": [],
      "name": "paused",
      "outputs": [
        {
          "internalType": "bool",
          "name": "",
          "type": "bool"
        }
      ],
      "stateMutability": "view",
      "type": "function"
    },
    {
      "inputs": [],
      "name": "poolCount",
      "outputs": [
        {
          "internalType": "uint256",
          "name": "",
          "type": "uint256"
        }
      ],
      "stateMutability": "view",
      "type": "function"
    },
    {
      "inputs": [
        {
          "internalType": "uint256",
          "name": "",
          "type": "uint256"
        }
      ],
      "name": "poolExists",
      "outputs": [
        {
          "internalType": "bool",
          "name": "",
          "type": "bool"
        }
      ],
      "stateMutability": "view",
      "type": "function"
    },
    {
      "inputs": [
        {
          "internalType": "uint256",
          "name": "",
          "type": "uint256"
        },
        {
          "internalType": "uint256",
          "name": "",
          "type": "uint256"
        }
      ],
      "name": "poolInvestors",
      "outputs": [
        {
          "internalType": "address",
          "name": "",
          "type": "address"
        }
      ],
      "stateMutability": "view",
      "type": "function"
    },
    {
      "inputs": [
        {
          "internalType": "uint256",
          "name": "",
          "type": "uint256"
        }
      ],
      "name": "pools",
      "outputs": [
        {
          "internalType": "string",
          "name": "fieldId",
          "type": "string"
        },
        {
          "internalType": "string",
          "name": "cropName",
          "type": "string"
        },
        {
          "internalType": "uint256",
          "name": "minStake",
          "type": "uint256"
        },
        {
          "internalType": "uint256",
          "name": "maxStake",
          "type": "uint256"
        },
        {
          "internalType": "uint256",
          "name": "totalStaked",
          "type": "uint256"
        },
        {
          "internalType": "uint256",
          "name": "rewardRate",
          "type": "uint256"
        },
        {
          "internalType": "uint256",
          "name": "lockDuration",
          "type": "uint256"
        },
        {
          "internalType": "uint256",
          "name": "harvestTime",
          "type": "uint256"
        },
        {
          "internalType": "bool",
          "name": "isActive",
          "type": "bool"
        },
        {
          "internalType": "enum FarmingPool.RiskLevel",
          "name": "riskLevel",
          "type": "uint8"
        },
        {
          "internalType": "uint256",
          "name": "totalRewards",
          "type": "uint256"
        },
        {
          "internalType": "uint256",
          "name": "investorsCount",
          "type": "uint256"
        }
      ],
      "stateMutability": "view",
      "type": "function"
    },
    {
      "inputs": [],
      "name": "renounceOwnership",
      "outputs": [],
      "stateMutability": "nonpayable",
      "type": "function"
    },
    {
      "inputs": [
        {
          "internalType": "uint256",
          "name": "poolId",
          "type": "uint256"
        },
        {
          "internalType": "bool",
          "name": "_isActive",
          "type": "bool"
        }
      ],
      "name": "setPoolStatus",
      "outputs": [],
      "stateMutability": "nonpayable",
      "type": "function"
    },
    {
      "inputs": [
        {
          "internalType": "uint256",
          "name": "poolId",
          "type": "uint256"
        },
        {
          "internalType": "uint256",
          "name": "amount",
          "type": "uint256"
        }
      ],
      "name": "stake",
      "outputs": [],
      "stateMutability": "nonpayable",
      "type": "function"
    },
    {
      "inputs": [
        {
          "internalType": "uint256",
          "name": "",
          "type": "uint256"
        },
        {
          "internalType": "address",
          "name": "",
          "type": "address"
        }
      ],
      "name": "stakes",
      "outputs": [
        {
          "internalType": "uint256",
          "name": "amount",
          "type": "uint256"
        },
        {
          "internalType": "uint256",
          "name": "timestamp",
          "type": "uint256"
        },
        {
          "internalType": "uint256",
          "name": "unlockTime",
          "type": "uint256"
        },
        {
          "internalType": "uint256",
          "name": "rewardsPaid",
          "type": "uint256"
        },
        {
          "internalType": "bool",
          "name": "isActive",
          "type": "bool"
        }
      ],
      "stateMutability": "view",
      "type": "function"
    },
    {
      "inputs": [
        {
          "internalType": "address",
          "name": "newOwner",
          "type": "address"
        }
      ],
      "name": "transferOwnership",
      "outputs": [],
      "stateMutability": "nonpayable",
      "type": "function"
    },
    {
      "inputs": [],
      "name": "unpause",
      "outputs": [],
      "stateMutability": "nonpayable",
      "type": "function"
    },
    {
      "inputs": [
        {
          "internalType": "uint256",
          "name": "poolId",
          "type": "uint256"
        }
      ],
      "name": "unstake",
      "outputs": [],
      "stateMutability": "nonpayable",
      "type": "function"
    },
    {
      "inputs": [
        {
          "internalType": "address",
          "name": "",
          "type": "address"
        },
        {
          "internalType": "uint256",
          "name": "",
          "type": "uint256"
        }
      ],
      "name": "userPools",
      "outputs": [
        {
          "internalType": "uint256",
          "name": "",
          "type": "uint256"
        }
      ],
      "stateMutability": "view",
      "type": "function"
    }
  ],
  "bytecode": "0x60a06040523480156200001157600080fd5b506040516200240d3803806200240d83398101604081905262000034916200013c565b600160005533806200006157604051631e4fbdf760e01b8152600060048201526024015b60405180910390fd5b6200006c81620000e2565b506001600160a01b038116620000d05760405162461bcd60e51b815260206004820152602260248201527f4661726d696e67506f6f6c3a20496e76616c696420746f6b656e206164647265604482015261737360f01b606482015260840162000058565b6001600160a01b03166080526200016e565b600180546001600160a01b03838116610100818102610100600160a81b031985161790945560405193909204169182907f8be0079c531659141344cd1fd0a4f28419497f9722a3daafe3b4186f6b6457e090600090a35050565b6000602082840312156200014f57600080fd5b81516001600160a01b03811681146200016757600080fd5b9392505050565b608051612267620001a660003960008181610387015281816105e40152818161075301528181610a55015261102501526122676000f3fe608060405234801561001057600080fd5b50600436106101c45760003560e01c80638da5cb5b116100f9578063be45be6511610097578063e1f1c4a711610071578063e1f1c4a714610495578063e6a69ab81461049e578063f2fde38b146104a9578063f525cb68146104bc57600080fd5b8063be45be651461045a578063becdeacc1461046d578063d3ffe67a1461048d57600080fd5b8063993c44f0116100d3578063993c44f014610382578063a9a3bba4146103a9578063ac4afa381461041c578063bbcaf3fe1461044757600080fd5b80638da5cb5b1461030a5780639626a230146103205780639816af581461036257600080fd5b80635c975abb11610166578063715018a611610140578063715018a6146102bc57806372e42038146102c45780637b0472f0146102ef5780638456cb591461030257600080fd5b80635c975abb1461026f5780635e1871d214610286578063694faadc146102a957600080fd5b806317686422116101a257806317686422146102175780632e17de781461022a5780632f380b351461023d5780633f4ba83a1461026757600080fd5b8063012ce501146101c95780630962ef79146101de5780631064aa55146101f1575b600080fd5b6101dc6101d7366004611ba9565b6104c5565b005b6101dc6101ec366004611ba9565b610652565b6102046101ff366004611bde565b6107bd565b6040519081526020015b60405180910390f35b610204610225366004611c08565b6107ee565b6101dc610238366004611ba9565b6108bf565b61025061024b366004611ba9565b610b00565b60405161020e9b9a99989796959493929190611cb2565b6101dc610cde565b60015460ff165b604051901515815260200161020e565b610276610294366004611ba9565b60076020526000908152604090205460ff1681565b6101dc6102b7366004611d2f565b610cf0565b6101dc610ddf565b6102d76102d2366004611d2f565b610df1565b6040516001600160a01b03909116815260200161020e565b6101dc6102fd366004611d2f565b610e29565b6101dc611160565b60015461010090046001600160a01b03166102d7565b61033361032e366004611c08565b611170565b6040805196875260208701959095529385019290925260608401521515608083015260a082015260c00161020e565b610375610370366004611d51565b6111dc565b60405161020e9190611d73565b6102d77f000000000000000000000000000000000000000000000000000000000000000081565b6103f26103b7366004611c08565b600360208181526000938452604080852090915291835291208054600182015460028301549383015460049093015491939092909160ff1685565b6040805195865260208601949094529284019190915260608301521515608082015260a00161020e565b61042f61042a366004611ba9565b611248565b60405161020e9c9b9a99989796959493929190611db7565b6101dc610455366004611e38565b6113bc565b6101dc610468366004611f10565b61144f565b61048061047b366004611ba9565b611830565b60405161020e9190611fbd565b600654610204565b61020461271081565b6102046301e1338081565b6101dc6104b7366004611d51565b6118cf565b61020460065481565b6104cd61190a565b600081815260076020526040902054819060ff166105065760405162461bcd60e51b81526004016104fd90611ffe565b60405180910390fd5b60008281526003602090815260408083203384529091529020600481015460ff166105735760405162461bcd60e51b815260206004820152601c60248201527f4661726d696e67506f6f6c3a204e6f20616374697665207374616b650000000060448201526064016104fd565b80546000612710610586836101f4612049565b6105909190612060565b9050600061059e8284612082565b6004808601805460ff191690556000888152600260205260408120909101805492935085929091906105d1908490612082565b9091555061060b90506001600160a01b037f0000000000000000000000000000000000000000000000000000000000000000163383611934565b60405181815233907f23d6711a1d031134a36921253c75aa59e967d38e369ac625992824315e204f209060200160405180910390a2505050505061064f6001600055565b50565b61065a61190a565b610662611998565b600081815260076020526040902054819060ff166106925760405162461bcd60e51b81526004016104fd90611ffe565b600061069e83336107ee565b9050600081116106f05760405162461bcd60e51b815260206004820181905260248201527f4661726d696e67506f6f6c3a204e6f207265776172647320746f20636c61696d60448201526064016104fd565b6000838152600360208181526040808420338552909152822001805483929061071a908490612095565b909155505060008381526002602052604081206009018054839290610740908490612095565b9091555061077a90506001600160a01b037f0000000000000000000000000000000000000000000000000000000000000000163383611934565b604051818152339084907fb4e1cfdb2fef870ce053402674ece847ae1bfa78857d20e666ba0e4bcab7a0f79060200160405180910390a3505061064f6001600055565b600560205281600052604060002081815481106107d957600080fd5b90600052602060002001600091509150505481565b6000828152600260209081526040808320600383528184206001600160a01b038616855290925282208054158061082a5750600481015460ff16155b1561083a576000925050506108b9565b600081600101544261084c9190612082565b90506000612710846005015484600001546108679190612049565b6108719190612060565b905060006301e133806108848484612049565b61088e9190612060565b9050836003015481116108a25760006108b1565b60038401546108b19082612082565b955050505050505b92915050565b6108c761190a565b6108cf611998565b600081815260076020526040902054819060ff166108ff5760405162461bcd60e51b81526004016104fd90611ffe565b600082815260036020908152604080832033845282528083208584526002909252909120600482015460ff166109775760405162461bcd60e51b815260206004820152601c60248201527f4661726d696e67506f6f6c3a204e6f20616374697665207374616b650000000060448201526064016104fd565b81600201544210156109cb5760405162461bcd60e51b815260206004820181905260248201527f4661726d696e67506f6f6c3a20546f6b656e73207374696c6c206c6f636b656460448201526064016104fd565b815460006109d986336107ee565b6004808601805460ff191690558401805491925083916000906109fd908490612082565b90915550508015610a3d5780846003016000828254610a1c9190612095565b9250508190555080836009016000828254610a379190612095565b90915550505b610a7c33610a4b8385612095565b6001600160a01b037f0000000000000000000000000000000000000000000000000000000000000000169190611934565b604051828152339087907f37375b03d8924bd8f076f11f8411b9962aa5c02fb489021507bc6bb6f850e3659060200160405180910390a38015610af157604051818152339087907fb4e1cfdb2fef870ce053402674ece847ae1bfa78857d20e666ba0e4bcab7a0f79060200160405180910390a35b505050505061064f6001600055565b6000818152600760205260408120546060918291819081908190819081908190819081908c9060ff16610b455760405162461bcd60e51b81526004016104fd90611ffe565b60008d815260026020819052604090912090810154600382015460048301546005840154600685015460078601546008870154600a8801548854899860018a019890979096909590949093909260ff8083169361010090930416918b90610bab906120a8565b80601f0160208091040260200160405190810160405280929190818152602001828054610bd7906120a8565b8015610c245780601f10610bf957610100808354040283529160200191610c24565b820191906000526020600020905b815481529060010190602001808311610c0757829003601f168201915b50505050509a50898054610c37906120a8565b80601f0160208091040260200160405190810160405280929190818152602001828054610c63906120a8565b8015610cb05780601f10610c8557610100808354040283529160200191610cb0565b820191906000526020600020905b815481529060010190602001808311610c9357829003601f168201915b505050505099509c509c509c509c509c509c509c509c509c509c509c50505091939597999b90929496989a50565b610ce66119bc565b610cee6119ef565b565b610cf86119bc565b600082815260076020526040902054829060ff16610d285760405162461bcd60e51b81526004016104fd90611ffe565b60008381526002602052604090206007810154421015610d985760405162461bcd60e51b815260206004820152602560248201527f4661726d696e67506f6f6c3a20486172766573742074696d65206e6f742072656044820152641858da195960da1b60648201526084016104fd565b60088101805460ff1916905560405183815284907f0e27ce72262b427d650a5c1b31f207400429f96c649050b16b32afddf05d7cc79060200160405180910390a250505050565b610de76119bc565b610cee6000611a41565b60046020528160005260406000208181548110610e0d57600080fd5b6000918252602090912001546001600160a01b03169150829050565b610e3161190a565b610e39611998565b600082815260076020526040902054829060ff16610e695760405162461bcd60e51b81526004016104fd90611ffe565b600083815260026020526040902060080154839060ff16610ecc5760405162461bcd60e51b815260206004820152601f60248201527f4661726d696e67506f6f6c3a20506f6f6c206973206e6f74206163746976650060448201526064016104fd565b60008481526002602081815260408084206003835281852033865290925290922090820154851015610f505760405162461bcd60e51b815260206004820152602760248201527f4661726d696e67506f6f6c3a20416d6f756e742062656c6f77206d696e696d756044820152666d207374616b6560c81b60648201526084016104fd565b60038201548154610f62908790612095565b1115610fbb5760405162461bcd60e51b815260206004820152602260248201527f4661726d696e67506f6f6c3a2045786365656473206d6178696d756d207374616044820152616b6560f01b60648201526084016104fd565b816007015442106110185760405162461bcd60e51b815260206004820152602160248201527f4661726d696e67506f6f6c3a205374616b696e6720706572696f6420656e64656044820152601960fa1b60648201526084016104fd565b61104d6001600160a01b037f000000000000000000000000000000000000000000000000000000000000000016333088611a9b565b80546000036110e35760008681526004602090815260408083208054600181810183559185528385200180546001600160a01b0319163390811790915584526005835290832080549182018155835290822001879055600a83018054916110b3836120dc565b9091555050426001820181905560068301546110ce91612095565b600282015560048101805460ff191660011790555b848160000160008282546110f79190612095565b92505081905550848260040160008282546111129190612095565b9091555050604051858152339087907f18dcd430020e4d4899772fd94a8b40451dc5044dfb70bc46b532eeae431c864f9060200160405180910390a35050505061115c6001600055565b5050565b6111686119bc565b610cee611ada565b60008281526003602081815260408084206001600160a01b0386168552909152822080546001820154600283015493830154600484015486958695869586958695929491939092909160ff166111c68e8e6107ee565b949e939d50919b50995097509095509350505050565b6001600160a01b03811660009081526005602090815260409182902080548351818402810184019094528084526060939283018282801561123c57602002820191906000526020600020905b815481526020019060010190808311611228575b50505050509050919050565b600260205260009081526040902080548190611263906120a8565b80601f016020809104026020016040519081016040528092919081815260200182805461128f906120a8565b80156112dc5780601f106112b1576101008083540402835291602001916112dc565b820191906000526020600020905b8154815290600101906020018083116112bf57829003601f168201915b5050505050908060010180546112f1906120a8565b80601f016020809104026020016040519081016040528092919081815260200182805461131d906120a8565b801561136a5780601f1061133f5761010080835404028352916020019161136a565b820191906000526020600020905b81548152906001019060200180831161134d57829003601f168201915b50505050600283015460038401546004850154600586015460068701546007880154600889015460098a0154600a909a015498999698959750939592949193909260ff8083169361010090930416918c565b6113c46119bc565b600082815260076020526040902054829060ff166113f45760405162461bcd60e51b81526004016104fd90611ffe565b600083815260026020908152604091829020600801805460ff1916851515908117909155915191825284917fb3c3c605d1520cd5bf41301dd5c04929e0ff021b02a10ea259b5a5b2d521a29c910160405180910390a2505050565b6114576119bc565b60008851116114a85760405162461bcd60e51b815260206004820152601e60248201527f4661726d696e67506f6f6c3a204669656c64204944207265717569726564000060448201526064016104fd565b60008751116114f95760405162461bcd60e51b815260206004820152601f60248201527f4661726d696e67506f6f6c3a2043726f70206e616d652072657175697265640060448201526064016104fd565b600086116115595760405162461bcd60e51b815260206004820152602760248201527f4661726d696e67506f6f6c3a204d696e207374616b65206d75737420626520706044820152666f73697469766560c81b60648201526084016104fd565b858510156115bd5760405162461bcd60e51b815260206004820152602b60248201527f4661726d696e67506f6f6c3a204d6178207374616b65206d757374206265203e60448201526a3d206d696e207374616b6560a81b60648201526084016104fd565b6113888411156116195760405162461bcd60e51b815260206004820152602160248201527f4661726d696e67506f6f6c3a20526577617264207261746520746f6f206869676044820152600d60fb1b60648201526084016104fd565b42821161167c5760405162461bcd60e51b815260206004820152602b60248201527f4661726d696e67506f6f6c3a20486172766573742074696d65206d757374206260448201526a6520696e2066757475726560a81b60648201526084016104fd565b600680546000918261168d836120dc565b9190505590506040518061018001604052808a8152602001898152602001888152602001878152602001600081526020018681526020018581526020018481526020016001151581526020018360028111156116eb576116eb611c7a565b81526000602080830182905260409283018290528482526002905220815181906117159082612143565b506020820151600182019061172a9082612143565b5060408201518160020155606082015181600301556080820151816004015560a0820151816005015560c0820151816006015560e082015181600701556101008201518160080160006101000a81548160ff0219169083151502179055506101208201518160080160016101000a81548160ff021916908360028111156117b3576117b3611c7a565b0217905550610140820151600982015561016090910151600a9091015560008181526007602052604090819020805460ff191660011790555181907faff6cd88712a1b0390116c972d7009ff0e1ad126ddc2c573cadb6ed849eb7c549061181d908c908c90612203565b60405180910390a2505050505050505050565b600081815260076020526040902054606090829060ff166118635760405162461bcd60e51b81526004016104fd90611ffe565b600083815260046020908152604091829020805483518184028101840190945280845290918301828280156118c157602002820191906000526020600020905b81546001600160a01b031681526001909101906020018083116118a3575b505050505091505b50919050565b6118d76119bc565b6001600160a01b03811661190157604051631e4fbdf760e01b8152600060048201526024016104fd565b61064f81611a41565b60026000540361192d57604051633ee5aeb560e01b815260040160405180910390fd5b6002600055565b6040516001600160a01b0383811660248301526044820183905261199391859182169063a9059cbb906064015b604051602081830303815290604052915060e01b6020820180516001600160e01b038381831617835250505050611b15565b505050565b60015460ff1615610cee5760405163d93c066560e01b815260040160405180910390fd5b6001546001600160a01b03610100909104163314610cee5760405163118cdaa760e01b81523360048201526024016104fd565b6119f7611b86565b6001805460ff191690557f5db9ee0a495bf2e6ff9c91a7834c1ba4fdd244a5e8aa4e537bd38aeae4b073aa335b6040516001600160a01b03909116815260200160405180910390a1565b600180546001600160a01b03838116610100818102610100600160a81b031985161790945560405193909204169182907f8be0079c531659141344cd1fd0a4f28419497f9722a3daafe3b4186f6b6457e090600090a35050565b6040516001600160a01b038481166024830152838116604483015260648201839052611ad49186918216906323b872dd90608401611961565b50505050565b611ae2611998565b6001805460ff1916811790557f62e78cea01bee320cd4e420270b5ea74000d11b0c9f74754ebdbfc544b05a25833611a24565b600080602060008451602086016000885af180611b38576040513d6000823e3d81fd5b50506000513d91508115611b50578060011415611b5d565b6001600160a01b0384163b155b15611ad457604051635274afe760e01b81526001600160a01b03851660048201526024016104fd565b60015460ff16610cee57604051638dfc202b60e01b815260040160405180910390fd5b600060208284031215611bbb57600080fd5b5035919050565b80356001600160a01b0381168114611bd957600080fd5b919050565b60008060408385031215611bf157600080fd5b611bfa83611bc2565b946020939093013593505050565b60008060408385031215611c1b57600080fd5b82359150611c2b60208401611bc2565b90509250929050565b6000815180845260005b81811015611c5a57602081850181015186830182015201611c3e565b506000602082860101526020601f19601f83011685010191505092915050565b634e487b7160e01b600052602160045260246000fd5b60038110611cae57634e487b7160e01b600052602160045260246000fd5b9052565b6000610160808352611cc68184018f611c34565b90508281036020840152611cda818e611c34565b9150508a60408301528960608301528860808301528760a08301528660c08301528560e0830152841515610100830152611d18610120830185611c90565b826101408301529c9b505050505050505050505050565b60008060408385031215611d4257600080fd5b50508035926020909101359150565b600060208284031215611d6357600080fd5b611d6c82611bc2565b9392505050565b6020808252825182820181905260009190848201906040850190845b81811015611dab57835183529284019291840191600101611d8f565b50909695505050505050565b61018081526000611dcc61018083018f611c34565b8281036020840152611dde818f611c34565b9150508b60408301528a60608301528960808301528860a08301528760c08301528660e0830152851515610100830152611e1c610120830186611c90565b61014082019390935261016001529a9950505050505050505050565b60008060408385031215611e4b57600080fd5b8235915060208301358015158114611e6257600080fd5b809150509250929050565b634e487b7160e01b600052604160045260246000fd5b600082601f830112611e9457600080fd5b813567ffffffffffffffff80821115611eaf57611eaf611e6d565b604051601f8301601f19908116603f01168101908282118183101715611ed757611ed7611e6d565b81604052838152866020858801011115611ef057600080fd5b836020870160208301376000602085830101528094505050505092915050565b600080600080600080600080610100898b031215611f2d57600080fd5b883567ffffffffffffffff80821115611f4557600080fd5b611f518c838d01611e83565b995060208b0135915080821115611f6757600080fd5b50611f748b828c01611e83565b97505060408901359550606089013594506080890135935060a0890135925060c0890135915060e089013560038110611fac57600080fd5b809150509295985092959890939650565b6020808252825182820181905260009190848201906040850190845b81811015611dab5783516001600160a01b031683529284019291840191600101611fd9565b6020808252818101527f4661726d696e67506f6f6c3a20506f6f6c20646f6573206e6f74206578697374604082015260600190565b634e487b7160e01b600052601160045260246000fd5b80820281158282048414176108b9576108b9612033565b60008261207d57634e487b7160e01b600052601260045260246000fd5b500490565b818103818111156108b9576108b9612033565b808201808211156108b9576108b9612033565b600181811c908216806120bc57607f821691505b6020821081036118c957634e487b7160e01b600052602260045260246000fd5b6000600182016120ee576120ee612033565b5060010190565b601f82111561199357600081815260208120601f850160051c8101602086101561211c5750805b601f850160051c820191505b8181101561213b57828155600101612128565b505050505050565b815167ffffffffffffffff81111561215d5761215d611e6d565b6121718161216b84546120a8565b846120f5565b602080601f8311600181146121a6576000841561218e5750858301515b600019600386901b1c1916600185901b17855561213b565b600085815260208120601f198616915b828110156121d5578886015182559484019460019091019084016121b6565b50858210156121f35787850151600019600388901b60f8161c191681555b5050505050600190811b01905550565b6040815260006122166040830185611c34565b82810360208401526122288185611c34565b9594505050505056fea2646970667358221220f38dd022d1a6ebc42a05ee42fbb19d9ca00327b274ccecb39603728754f8a0c564736f6c63430008140033",
  "linkReferences": {},
  "deployedLinkReferences": {}
}